:020000040800F2
:10000000380500204501000813140008F911000804
:1000100011140008B10100085D170008000000007D
:10002000000000000000000000000000171400089D
:10003000B30100080000000015140008191400089E
:100040005F0100085F0100085F0100085F01000810
:100050005F0100085F0100085F0100085F01000800
:100060005F0100085F0100085F0100085F010008F0
:100070005F0100085F0100085F0100085F010008E0
:100080005F0100085F0100085F0100085F010008D0
:100090005F0100085F0100085F0100085F010008C0
:1000A0005F0100085F0100085F0100085F010008B0
:1000B0005F0100085F0100085F0100085F010008A0
:1000C0005F0100085F0100085F0100085F01000890
:1000D0005F0100085F0100085F0100085F01000880
:1000E0005F0100085F0100085F0100085F01000870
:1000F0005F0100085F0100085F0100085F01000860
:100100005F0100085F0100085F0100085F0100084F
:100110005F0100085F0100085F0100086D1400081E
:100120005F0100085F0100085F0100085F0100082F
:10013000DFF80CD000F02AF8004800479D170008AF
:10014000380500200648804706480047FEE7FEE7DE
:10015000FEE7FEE7FEE7FEE7FEE7FEE7FEE7FEE777
:100160006B14000831010008D2B201E000F8012B45
:10017000491EFBD270470022F6E710B513460A4627
:1001800004461946FFF7F0FF204610BD064C074D08
:1001900006E0E06840F0010394E807009847103457
:1001A000AC42F6D3FFF7C8FF08180008281800086B
:1001B000FEE77047704700002DE9F84FDFF8C8915F
:1001C000002409F1040A0AF1040B23460F270BF15E
:1001D000040ED1E00125A54006EA0502AA4276D127
:1001E000DFF8A8C14E68A6EB0C0866452BD00DDCE5
:1001F000032E34D005DC36B3012E19D0022E2FD1B8
:100200001BE0112E16D0122E2AD119E0B8F5881F46
:1002100019D006DCB8F5803F15D0B8F5801F1FD186
:1002200011E0B8F5001F0ED0B8F5041F18D10AE090
:10023000CB6815E0CB681B1D12E0CB6808330FE0DC
:10024000CB680C330CE08B682BB1012B4FF008030B
:1002500003D0456104E0042302E0056100E00023CF
:10026000FF2A01D8064601E000F104064FEA8405A2
:1002700001D9A5F12005D6F8008007FA05FC28EA87
:100280000C0803FA05F548EA0508C6F800804D6831
:10029000ED0070D53E4DAE6946F00106AE61AD6928
:1002A00024F0030605F0010500953A4D06EB050C18
:1002B000DCF80850A607360F07FA06F825EA080505
:1002C000DFF8D480404503D14FF0000825E052E02C
:1002D000DFF8C880404502D14FF001081DE0DFF88B
:1002E000C080404502D14FF0020816E0DFF8B4802C
:1002F000404502D14FF003080FE0DFF8AC804045E5
:1003000002D14FF0040808E0DFF8A080404502D198
:100310004FF0050801E04FF0060808FA06F848EA31
:100320000508CCF808804D68D9F80060ED034D460B
:1003300001D5164300E096432E604D68DAF8006060
:10034000AD03554601D5164300E096432E604D6837
:10035000DBF80060ED025D4601D5164300E09643F0
:100360002E604D68DEF80060AD02754601D516437B
:1003700000E096432E60641C0A681646E2407FF453
:1003800029AFBDE8F88F0000000401400000111003
:10039000001002400000014000080140000C014034
:1003A000001001400014014000180140001C0140F1
:1003B000C26821EA02030A4043EA02410161704730
:1003C0000AB1016170470904FBE700000148806839
:1003D000704700000C000020024881680278114438
:1003E000816070470C000020074810B5016841F09B
:1003F00010010160032000F075F8002000F006F8FD
:1004000000F024F8002010BD0020024070B50D4D12
:1004100004464FF47A712878B1FBF0F00A49096874
:10042000B1FBF0F000F0ECFA48B9102C07D2002232
:100430002146501E00F036F800206C6070BD01208F
:1004400070BD00000C000020080000200C4808B51A
:10045000816941F001018161816901F0010100912F
:10046000C16941F08051C161C06900F080500090C5
:100470000448416821F0E06141F00071416008BD2D
:100480000010024000000140002809DB00F01F02BC
:10049000012191404009800000F1E020C0F80011E6
:1004A00070470000F0B40E4B1B680C46C3F30223E8
:1004B000C3F10705042D00D90425191D072901D210
:1004C000002300E0DB1E012606FA05F1491E21404B
:1004D00099409E40761E16403143F0BC01F03FB972
:1004E0000CED00E0064900F0070208684FF6FF0334
:1004F000184040EA0220034A104308607047000099
:100500000CED00E00000FA052DE9F0470F4605006C
:1005100061D0434E306800F00700B84209D230681D
:1005200020F0070038433060306800F00700B84220
:1005300051D128683B4C810712D5400703D560682C
:1005400040F4E06060602878000703D5606840F4FC
:10055000605060606068A96820F0F0000843606047
:100560002878C00728D06868012810D021680228A0
:1005700010D0890700292EDA616821F003010143B8
:100580006160FFF723FF804641F288390DE0216862
:100590008903EFE78901EDE7FFF718FFA0EB0801FA
:1005A000494502D90320BDE8F0876068696800F01A
:1005B0000C00B0EB810FEFD1306800F00700B842BB
:1005C0000BD9306820F0070038433060306800F005
:1005D0000700B84201D00120E5E72878400705D59B
:1005E0006068E96820F4E0600843606028780007EC
:1005F00006D56068296920F4605040EAC100606057
:1006000000F038F86168084AC1F30311515CC84032
:100610000649086006480068FFF7F8FE0020C2E7B8
:100620000020024000100240F017000808000020DF
:10063000100000200448054900684968044AC1F3D5
:100640000221515CC84070470800002000100240A1
:10065000001800080448054900684968044AC1F3C5
:10066000C221515CC84070470800002000100240C1
:100670000018000812A185B00FC98DE80F0014A062
:10068000144A006804905168134801F00C03042BCD
:1006900010D0082B0ED1C1F38343C9031DF803000A
:1006A0000AD5516804AAC1F34041515C0A4A50433B
:1006B000B0FBF1F005B0704708494843FAE7000085
:1006C00002030405060708090A0B0C0D0E0F101093
:1006D000010200000010024000127A0000093D00F3
:1006E0002DE9F84F040070D02078C04DC00749D0E4
:1006F0006868C0F38100012807D06868C0F38100F2
:10070000022809D16868C00306D52868800339D556
:1007100060680028E7D035E06068B0F5803F0BD016
:1007200010B1B0F5A02F11D0286820F480302860D7
:10073000286820F4802002E0286840F48030286097
:10074000606890B1FFF742FE06460AE0286840F470
:1007500080202860F0E700BFFFF738FE801B642888
:1007600073D828688003F7D50CE0FFF72FFE064604
:1007700005E000BFFFF72AFE801B6428F0D8286838
:100780008003F7D420789A4E80074FF001094FF08C
:10079000000839D5686810F00C0F07D06868C0F3FE
:1007A0008100022809D16868C00306D42868800740
:1007B00014D52069012808D110E02069B0B1C6F82D
:1007C0000090FFF703FE074605E00AE1FFF7FEFD94
:1007D000C01B0228C4D828688007F7D5286861693B
:1007E00020F0F80040EAC10028600DE0C6F8008063
:1007F000FFF7ECFD074604E0FFF7E8FDC01B022809
:1008000023D828688007F7D4207800072CD57948AA
:10081000A169D9B1C0F80090FFF7D8FD074604E000
:10082000FFF7D4FDC01B02280FD8686A8007F7D5F0
:1008300071484FF4FA510068B0FBF1F0009000BF2E
:100840000098411E0091FAD20EE080E0C0F80080CE
:10085000FFF7BCFD074604E0FFF7B8FDC01B022808
:1008600075D8686A8007F7D42078400760D5E869B2
:100870000027C00008D4E86940F08050E861E869CA
:10088000012700F0805000905C480168C90513D42E
:100890000168834641F480710160FFF797FD82464D
:1008A00006E000BFFFF792FDA0EB0A0064284ED8D7
:1008B000DBF80000C005F5D5E06801280AD008B1D2
:1008C000052813D0286A20F001002862286A20F049
:1008D000040002E0286A40F001002862E06841F26A
:1008E000883B98B1FFF772FD82460BE0286A40F022
:1008F00004002862EEE700BFFFF768FDA0EB0A01E5
:1009000059455AD8286A8007F6D50CE0FFF75EFDF6
:10091000824605E0FFF75AFDA0EB0A0159454CD885
:10092000286A8007F6D41FB1E86920F08050E8619A
:10093000E06988B36968C1F38101022944D00228C3
:10094000C6F8608004D0FFF741FD044638E034E08B
:10095000FFF73CFD074604E0FFF738FDC01B022807
:100960002BD828688001F7D4206AB0F5803F05D1E4
:100970006868A16820F4003008436860D4E9080181
:100980000843696821F4741108436860C6F86090F0
:10099000FFF71CFD044606E025E000BFFFF716FD4B
:1009A000001B022809D828688001F7D51BE000BF8A
:1009B000FFF70CFD001B022802D90320BDE8F88FC9
:1009C00028688001F4D40EE00128F7D06868226A14
:1009D00000F48031914204D1616A00F470108842C1
:1009E00001D00120EAE70020E8E700000010024003
:1009F0000000424280044242080000200070004093
:100A000010B5401EB0F1807F01D3012010BD4FF022
:100A1000E02460610F21601700F0A1FE0020A061BA
:100A200007202061002010BD7047704770B590F816
:100A30003C20012A2CD0012480F83C40022280F87E
:100A40003D2003685A689D6822F070060A683243A8
:100A50005A60104B02689A420ED00F4B9A420BD04C
:100A6000B2F1804F08D00D4B9A4205D00C4B9A4200
:100A700002D00C4B9A4204D1496825F080031943F7
:100A8000916080F83D40002180F83C10084670BD20
:100A9000022070BD002C01400034014000040040E1
:100AA00000080040000C004010B5040003D094F88A
:100AB0003D0010B107E0012010BD002084F83C008B
:100AC000204600F01FF8022084F83D00211D206818
:100AD00000F0D2FC012084F8460084F83E0084F83F
:100AE0003F0084F8400084F8410084F8420084F814
:100AF000430084F8440084F8450084F83D00002059
:100B000010BD000008B500680B49884212D10B489F
:100B1000C16941F02001C161C069002200F02000DC
:100B2000009001213720FFF7BDFCBDE808403720C9
:100B3000FFF7AABC08BD00000014004000100240EE
:100B400090F83D10012901D001207047022180F862
:100B50003D100168CA6842F00102CA6000680E498F
:100B600088420ED00D4988420BD0B0F1804F08D09A
:100B70000B49884205D00B49884202D00A49884275
:100B800004D1816801F00701062903D0016841F012
:100B90000101016000207047002C01400034014039
:100BA0000004004000080040000C00402DE9F04126
:100BB0000D46040003D094F83D0018B108E0012070
:100BC000BDE8F081002084F83C00204600F040F8A9
:100BD000022084F83D002068816844F207029143B6
:100BE0008160211D206800F047FC226890689169AF
:100BF000166A2B68AF69034340F20330814341EA30
:100C00000721A868EF6908434FF6FC418843E9686B
:100C100040EA0720014328692F6A000140EA0730B3
:100C2000084369686D6926F0220646EA05152943DE
:100C300093602268906154F8460B0162012004F829
:100C40001F09E0752076E0762077A0750020B7E7D1
:100C500000B585B0002100910191029103910068D7
:100C60000D49884216D10D48C16941F00201C161A8
:100C7000C16901F002010491816941F004018161BF
:100C80008069694600F004000490C0200090044888
:100C9000FFF792FA05B000BD0004004000100240CA
:100CA0000008014070B590F83E60044690F83F504F
:100CB00090F8423090F84320022021B104290ED050
:100CC000012E1BD114E0012E18D1012B16D184F86E
:100CD0003E0084F8420001220021206820E0012D1E
:100CE0000CD1012A0AD184F83F0084F8430014E0B3
:100CF000012D03D1012B01D1012A01D0012070BDAA
:100D000084F83E0084F83F0084F8420084F84300F1
:100D100001220021206800F0F5FB01220421206857
:100D200000F0F0FB2068016841F001010160002043
:100D300070BD704770B50446006801694FF000054A
:100D4000C943890715D4C168C943890711D4E91E6D
:100D5000016101202077206880698007204602D049
:100D6000FFF7E7FF04E000F0BDF8204600F05EF971
:100D7000257720680169C943490717D4C168C94369
:100D8000490713D46FF00401016102202077206825
:100D9000806910F4407F204602D0FFF7CAFF04E0CC
:100DA00000F0A0F8204600F041F92577206801699D
:100DB000C943090716D4C168C943090712D46FF0A3
:100DC00008010161042020772068C069800720465F
:100DD00002D0FFF7AEFF04E000F084F8204600F0F8
:100DE00025F9257720680169C943C90617D4C16868
:100DF000C943C90613D46FF01001016108202077A0
:100E00002068C06910F4407F204602D0FFF791FFB0
:100E100004E000F067F8204600F008F92577206824
:100E20000169C943C90708D1C168C943C90704D1C9
:100E3000891E0161204600F055F920680169C94307
:100E4000090609D4C168C943090605D46FF08001B9
:100E500001612046FFF7E8FD20680169C9434906A2
:100E600009D4C168C943490605D46FF04001016146
:100E7000204600F057F920680169C94389060BD460
:100E8000C168C943890607D46FF02001016120467B
:100E9000BDE87040FFF7C9BD70BD000000B585B06A
:100EA000002100910191029103910068B0F1804FFF
:100EB00011D10A48816941F0040181618069694664
:100EC00000F00400049003200090022001900390A1
:100ED0000348FFF771F905B000BD000000100240A3
:100EE00000080140704770B5044690F83C000D467C
:100EF00001280AD0012084F83C0042B1042A18D00D
:100F0000082A2AD00C2A4DD139E0022070BD206871
:100F100000F006FB2068816941F0080181612068CA
:100F2000816921F004018161206881692A69114386
:100F300011E0206800F024FB2068816941F4006121
:100F400081612068816921F4806181612068816903
:100F50002A6941EA0221816124E0206800F046FB11
:100F60002068C16941F00801C1612068C16921F0B0
:100F70000401C1612068C1692A69114311E0206838
:100F800000F068FB2068C16941F40061C16120681C
:100F9000C16921F48061C1612068C1692A6941EA9F
:100FA0000221C161002084F83C0070BD10B504002E
:100FB00003D094F83D0010B107E0012010BD0020DF
:100FC00084F83C00204600F01FF8022084F83D0021
:100FD000211D206800F050FA012084F8460084F8B2
:100FE0003E0084F83F0084F8400084F8410084F813
:100FF000420084F8430084F8440084F8450084F8F3
:101000003D00002010BD000008B50068B0F1804F21
:1010100008D10548C16941F00101C161C06900F012
:101020000100009008BD0000001002407047000061
:1010300010B50446022249B104290ED0082913D064
:1010400094F84100012816D0012010BD94F83E000C
:101050000128F9D184F83E200FE094F83F000128E0
:10106000F2D184F83F2008E094F840000128EBD149
:1010700084F8402001E084F841200122206800F03B
:1010800041FA13492068134A884201D0904203D1A3
:10109000436C43F400434364206888420DD090427F
:1010A0000BD0B0F1804F08D00B49884205D00B49D6
:1010B000884202D00A49884204D1816801F00701C0
:1010C000062903D0016841F001010160002010BD34
:1010D000002C0140003401400004004000080040A2
:1010E000000C004070B50B49884211D10A4C2078A1
:1010F000401CC0B2207064280AD908480068416AC0
:1011000000256160456220210548FFF751F92570EF
:1011100070BD0000A800002000000020600000203A
:1011200000180140704770B5040004D094F83D00E9
:10113000002510B106E0012070BD84F83C50204627
:1011400000F022F8242084F83D002068C16821F4D2
:101150000051C160204600F0A5FA2068016921F421
:10116000904101612068416921F02A0141612068B4
:10117000C16841F40051C1602564202084F83D001D
:1011800084F83E00002070BD30B585B00024009486
:1011900001940294039400681449884224D11448AD
:1011A000816941F480418161816901F48041049148
:1011B000816941F00401816180690E4D00F00400F5
:1011C00004904FF4007000900220019003200390DF
:1011D00069462846FEF7F0FF2815CDE90004694668
:1011E00028460294FEF7E8FF05B030BD0038014004
:1011F0000010024000080140FEE700002DE9F04128
:1012000086B00024244800940194029403948169D8
:1012100041F040018161816901F0400104918169DF
:1012200041F010018161816901F01001049181692F
:1012300041F004018161816901F004010491816937
:1012400041F0080181618069144F00F008000490AA
:10125000002220213846FFF7B3F8DFF8448000224F
:1012600003214046FFF7ACF8202001250226CDE9F6
:101270000005CDE9024669463846FEF79DFF03208A
:10128000CDE90005CDE9024669464046FEF794FFE8
:1012900006B0BDE8F08100000010024000180140D7
:1012A000000C014010B58AB0002407941C21684648
:1012B0000894FEF760FF1A484FF080410160472113
:1012C000C0E9011444F61F61C0E903148461FFF70B
:1012D0006DFE08B1FEF76EFF079407A91048089449
:1012E000FFF7A4FB08B1FEF765FF6020CDE900041D
:1012F0000294002269460A480494FFF7F4FD08B1FD
:10130000FEF758FF042269460548FFF7ECFD08B1D7
:10131000FEF750FF0248FFF7C1FD0AB010BD000004
:101320001800002010B58CB024216846FEF723FF7A
:1013300000241648099414490A94C0E900144FF691
:10134000FF71C0E902418021046181610320CDE980
:1013500000040120CDE902040494CDE9054007947E
:1013600069460A480894FFF721FC08B1FEF722FFFE
:10137000099409A905480A94FFF758FB002801D0F1
:10138000FEF718FF0CB010BD000400406000002004
:101390001CB500240F4800940D49019401604721B9
:1013A000C0E9011442F20F71C16080218161FFF731
:1013B0007BFB08B1FEF7FEFE0094694605480194E8
:1013C000FFF734FB002801D0FEF7F4FE1CBD00003F
:1013D00000140040A80000200C4810B50A49016024
:1013E0004FF4E1314160002181600C22C160C0E90D
:1013F00004128161C161FFF796FE002803D0BDE8A9
:101400001040FEF7D7BE10BD00380140F0000020AC
:10141000FEE7704770477047FEF7DEBF30B58FB00C
:1014200028216846FEF7A7FE14210AA8FEF7A3FEAE
:1014300001210804CDE90010002402940225049142
:10144000CDE907504FF4E01009906846FFF748F9DE
:101450000F20CDE90A056802CDE90C4002210AA857
:101460000E94FFF751F80FB030BD70470148FFF7F9
:1014700061BC0000A8000020F0B502681C4B1D4DA7
:101480001D4E1E4F1E4C4FF0804C984209D0A0427A
:1014900007D0604505D0A84203D0B04201D0B84281
:1014A00004D122F0700E4A6842EA0E02984209D036
:1014B000A04207D0604505D0A84203D0B04201D079
:1014C000B84203D122F44075CA682A434D6922F01C
:1014D00080022A4302608A68C2620A688262984275
:1014E00001D0A04201D10969016301214161F0BD30
:1014F000002C01400004004000080040000C0040A7
:101500000034014010B501F01F030121046A994025
:101510008C430462016A9A401143016210BD0000CD
:10152000F0B5026A22F001020262036A426884692D
:10153000124E24F073050C682C4323F002058B68CF
:101540002B430D4DA84201D0B04205D123F008072E
:10155000CB683B4323F00403A84201D0B04205D13D
:101560004D6922F4407215438A692A4342608461BE
:10157000496841630362F0BD002C01400034014022
:10158000F0B5026A22F010020262026A43688469BE
:101590000D6824F4E64444EA05248D6822F0200214
:1015A00042EA05120F4D104EA84201D0B04206D1BA
:1015B000CF6822F0800242EA071222F04002A842DD
:1015C00001D0B04207D14D6923F4406343EA85035B
:1015D0008D6943EA850343608461496881630262DF
:1015E000F0BD0000002C014000340140F0B5026A5B
:1015F00022F480720262026A4368C46922F40072B3
:1016000024F073050C68124E2C438D6842EA0522C3
:101610000E4DA84201D0B04206D1CF6822F400623C
:1016200042EA072222F48062A84201D0B04207D1E8
:101630004D6923F4405343EA05138D6943EA0513CA
:101640004360C4614968C1630262F0BD002C01407F
:101650000034014030B5026A22F480520262046A0A
:101660004268C3690D6823F4E64343EA05238D68A5
:1016700024F4005444EA0534084DA84202D0084D31
:10168000A84204D14D6922F4804242EA85124260A8
:10169000C36149680164046230BD0000002C014050
:1016A0000034014070B5044600680169E26821F425
:1016B0004051114301612169A068084361690843F1
:1016C0002168CA6841F20C639A430243CA602068E9
:1016D0004169A26921F44071114341611E492068AA
:1016E000884202D1FEF7B6FF01E0FEF7A3FF00EB50
:1016F000C00101EB0012606864218000B2FBF0F3CE
:10170000B3FBF1F36FF018067343B2FBF0F5B2FBD5
:10171000F0F605EB8305322303EB0515B5FBF1F578
:10172000B6FBF1F605F0F00505EB0615B2FBF0F699
:10173000B2FBF0F0B0FBF1F06FF01802504306EB93
:10174000800003EB0010B0FBF1F0216800F00F0007
:101750002844886070BD000000380140FEE709079A
:10176000090E002804DB00F1E02080F80014704727
:1017700000F00F0000F1E02080F8141D704702E037
:1017800008C8121F08C1002AFAD17047704700200C
:1017900001E001C1121F002AFBD17047FEF724FEB1
:1017A000FFF73CFEFFF72AFDFFF77CFDFFF7BAFDD0
:1017B000FFF7EEFDFFF710FE0A48FFF7C1F93C21E5
:1017C0000948FFF76FFA00210848FFF731FC074886
:1017D00043F6982142F6E0620368596303685A634E
:1017E000FAE70000A8000020600000201800002098
:1017F00000000000000000000102030406070809C1
:101800000000000001020304281800080000002066
:10181000180000007E17000840180008180000207B
:10182000200500008E1700080000000000000000E6
:101830000024F4000100000010000000000000007F
:0400000508000131BD
:00000001FF
